{
  "_format": "hh-sol-artifact-1",
  "contractName": "APIConsumer",
  "sourceName": "contracts/APIConsumer.sol",
  "abi": [
    {
      "inputs": [],
      "stateMutability": "nonpayable",
      "type": "constructor"
    },
    {
      "anonymous": false,
      "inputs": [
        {
          "indexed": true,
          "internalType": "bytes32",
          "name": "id",
          "type": "bytes32"
        }
      ],
      "name": "ChainlinkCancelled",
      "type": "event"
    },
    {
      "anonymous": false,
      "inputs": [
        {
          "indexed": true,
          "internalType": "bytes32",
          "name": "id",
          "type": "bytes32"
        }
      ],
      "name": "ChainlinkFulfilled",
      "type": "event"
    },
    {
      "anonymous": false,
      "inputs": [
        {
          "indexed": true,
          "internalType": "bytes32",
          "name": "id",
          "type": "bytes32"
        }
      ],
      "name": "ChainlinkRequested",
      "type": "event"
    },
    {
      "inputs": [
        {
          "internalType": "bytes32",
          "name": "_requestId",
          "type": "bytes32"
        },
        {
          "internalType": "uint256",
          "name": "_result",
          "type": "uint256"
        }
      ],
      "name": "fulfill",
      "outputs": [],
      "stateMutability": "nonpayable",
      "type": "function"
    },
    {
      "inputs": [],
      "name": "jobId",
      "outputs": [
        {
          "internalType": "bytes32",
          "name": "",
          "type": "bytes32"
        }
      ],
      "stateMutability": "view",
      "type": "function"
    },
    {
      "inputs": [],
      "name": "oracle",
      "outputs": [
        {
          "internalType": "address",
          "name": "",
          "type": "address"
        }
      ],
      "stateMutability": "view",
      "type": "function"
    },
    {
      "inputs": [],
      "name": "requestPrice",
      "outputs": [
        {
          "internalType": "bytes32",
          "name": "requestId",
          "type": "bytes32"
        }
      ],
      "stateMutability": "nonpayable",
      "type": "function"
    },
    {
      "inputs": [],
      "name": "result",
      "outputs": [
        {
          "internalType": "uint256",
          "name": "",
          "type": "uint256"
        }
      ],
      "stateMutability": "view",
      "type": "function"
    },
    {
      "inputs": [
        {
          "internalType": "address",
          "name": "_oracle",
          "type": "address"
        }
      ],
      "name": "setOracleAddress",
      "outputs": [],
      "stateMutability": "nonpayable",
      "type": "function"
    },
    {
      "inputs": [
        {
          "internalType": "string",
          "name": "_jobId",
          "type": "string"
        }
      ],
      "name": "setOracleJobId",
      "outputs": [],
      "stateMutability": "nonpayable",
      "type": "function"
    }
  ],
  "bytecode": "0x608060405260016004553480156200001657600080fd5b5062000027620000b860201b60201c565b737cbf93692cbba821e69660221ce604e73a80b40f600760006101000a81548173ffffffffffffffffffffffffffffffffffffffff021916908373ffffffffffffffffffffffffffffffffffffffff1602179055507f623364396631653761313630343662343930383166636164393962383037643060088190555067016345785d8a000060098190555062000240565b6200015e73c89bd4e1632d3a43cb03aaad5262cbe4038bc57173ffffffffffffffffffffffffffffffffffffffff166338cc48316040518163ffffffff1660e01b815260040160206040518083038186803b1580156200011757600080fd5b505afa1580156200012c573d6000803e3d6000fd5b505050506040513d601f19601f82011682018060405250810190620001529190620001bb565b6200016060201b60201c565b565b80600260006101000a81548173ffffffffffffffffffffffffffffffffffffffff021916908373ffffffffffffffffffffffffffffffffffffffff16021790555050565b600081519050620001b58162000226565b92915050565b600060208284031215620001d457620001d362000221565b5b6000620001e484828501620001a4565b91505092915050565b6000620001fa8262000201565b9050919050565b600073ffffffffffffffffffffffffffffffffffffffff82169050919050565b600080fd5b6200023181620001ed565b81146200023d57600080fd5b50565b61199d80620002506000396000f3fe608060405234801561001057600080fd5b506004361061007d5760003560e01c8063653721471161005b57806365372147146100d85780637dc0d1d0146100f657806387da253d14610114578063c2939d97146101305761007d565b80631604f9ea146100825780634357855e146100a05780634c69c00f146100bc575b600080fd5b61008a61014e565b604051610097919061122f565b60405180910390f35b6100ba60048036038101906100b59190610fb3565b610273565b005b6100d660048036038101906100d19190610f59565b610384565b005b6100e06103c8565b6040516100ed919061128a565b60405180910390f35b6100fe6103ce565b60405161010b9190611151565b60405180910390f35b61012e60048036038101906101299190610ff3565b6103f4565b005b610138610406565b604051610145919061122f565b60405180910390f35b60008061016560085430634357855e60e01b61040c565b90506000670de0b6b3a764000090506101be6040518060400160405280600581526020017f74696d6573000000000000000000000000000000000000000000000000000000815250828461043d9092919063ffffffff16565b61023d6040518060400160405280600481526020017f66726f6d000000000000000000000000000000000000000000000000000000008152506040518060400160405280600381526020017f4554480000000000000000000000000000000000000000000000000000000000815250846104709092919063ffffffff16565b61026c600760009054906101000a900473ffffffffffffffffffffffffffffffffffffffff16836009546104a3565b9250505090565b816005600082815260200190815260200160002060009054906101000a900473ffffffffffffffffffffffffffffffffffffffff1673ffffffffffffffffffffffffffffffffffffffff163373ffffffffffffffffffffffffffffffffffffffff1614610315576040517f08c379a000000000000000000000000000000000000000000000000000000000815260040161030c9061126a565b60405180910390fd5b6005600082815260200190815260200160002060006101000a81549073ffffffffffffffffffffffffffffffffffffffff0219169055807f7cc135e0cebb02c3480ae5d74d377283180a2601f8f644edf7987b009316c63a60405160405180910390a281600681905550505050565b80600760006101000a81548173ffffffffffffffffffffffffffffffffffffffff021916908373ffffffffffffffffffffffffffffffffffffffff16021790555050565b60065481565b600760009054906101000a900473ffffffffffffffffffffffffffffffffffffffff1681565b6103fd8161056f565b60088190555050565b60085481565b610414610e0e565b61041c610e0e565b61043385858584610599909392919063ffffffff16565b9150509392505050565b61045482846080015161064990919063ffffffff16565b61046b81846080015161066e90919063ffffffff16565b505050565b61048782846080015161064990919063ffffffff16565b61049e81846080015161064990919063ffffffff16565b505050565b60008060045490506001816104b89190611328565b6004819055506000634042994660e01b60008087600001513089604001518760018c60800151600001516040516024016104f998979695949392919061116c565b604051602081830303815290604052907bffffffffffffffffffffffffffffffffffffffffffffffffffffffff19166020820180517bffffffffffffffffffffffffffffffffffffffffffffffffffffffff838183161783525050505090506105648683868461071b565b925050509392505050565b60008082905060008151141561058b576000801b915050610594565b60208301519150505b919050565b6105a1610e0e565b6105b185608001516101006108bf565b508385600001818152505082856020019073ffffffffffffffffffffffffffffffffffffffff16908173ffffffffffffffffffffffffffffffffffffffff16815250508185604001907bffffffffffffffffffffffffffffffffffffffffffffffffffffffff191690817bffffffffffffffffffffffffffffffffffffffffffffffffffffffff191681525050849050949350505050565b6106568260038351610929565b6106698183610aae90919063ffffffff16565b505050565b7fffffffffffffffffffffffffffffffffffffffffffffffff00000000000000008112156106a5576106a08282610ad0565b610717565b67ffffffffffffffff8113156106c4576106bf8282610b47565b610716565b600081126106dd576106d882600083610929565b610715565b610714826001837fffffffffffffffffffffffffffffffffffffffffffffffffffffffffffffffff61070f9190611549565b610929565b5b5b5b5050565b60003084604051602001610730929190611125565b604051602081830303815290604052805190602001209050846005600083815260200190815260200160002060006101000a81548173ffffffffffffffffffffffffffffffffffffffff021916908373ffffffffffffffffffffffffffffffffffffffff160217905550807fb5e6e01e79f91267dc17b4e6314d5d4d03593d2ceee0fbb452b750bd70ea5af960405160405180910390a2600260009054906101000a900473ffffffffffffffffffffffffffffffffffffffff1673ffffffffffffffffffffffffffffffffffffffff16634000aea08685856040518463ffffffff1660e01b8152600401610826939291906111f1565b602060405180830381600087803b15801561084057600080fd5b505af1158015610854573d6000803e3d6000fd5b505050506040513d601f19601f820116820180604052508101906108789190610f86565b6108b7576040517f08c379a00000000000000000000000000000000000000000000000000000000081526004016108ae9061124a565b60405180910390fd5b949350505050565b6108c7610e7b565b60006020836108d69190611770565b14610902576020826108e89190611770565b60206108f491906115dd565b826108ff9190611328565b91505b81836020018181525050604051808452600081528281016020016040525082905092915050565b60178167ffffffffffffffff16116109605761095a8160058460ff16901b60ff161784610b9390919063ffffffff16565b50610aa9565b60ff8167ffffffffffffffff16116109b65761098f601860058460ff16901b1784610b9390919063ffffffff16565b506109b08167ffffffffffffffff16600185610bb39092919063ffffffff16565b50610aa8565b61ffff8167ffffffffffffffff1611610a0d576109e6601960058460ff16901b1784610b9390919063ffffffff16565b50610a078167ffffffffffffffff16600285610bb39092919063ffffffff16565b50610aa7565b63ffffffff8167ffffffffffffffff1611610a6657610a3f601a60058460ff16901b1784610b9390919063ffffffff16565b50610a608167ffffffffffffffff16600485610bb39092919063ffffffff16565b50610aa6565b610a83601b60058460ff16901b1784610b9390919063ffffffff16565b50610aa48167ffffffffffffffff16600885610bb39092919063ffffffff16565b505b5b5b5b505050565b610ab6610e7b565b610ac883846000015151848551610bd5565b905092915050565b610aee60036005600660ff16901b1783610b9390919063ffffffff16565b50610b4382827fffffffffffffffffffffffffffffffffffffffffffffffffffffffffffffffff610b1f9190611549565b604051602001610b2f919061128a565b604051602081830303815290604052610cc4565b5050565b610b6560026005600660ff16901b1783610b9390919063ffffffff16565b50610b8f8282604051602001610b7b919061128a565b604051602081830303815290604052610cc4565b5050565b610b9b610e7b565b610bab8384600001515184610ce9565b905092915050565b610bbb610e7b565b610bcc848560000151518585610d40565b90509392505050565b610bdd610e7b565b8251821115610beb57600080fd5b84602001518285610bfc9190611328565b1115610c3157610c30856002610c2188602001518887610c1c9190611328565b610dce565b610c2b91906114ef565b610dea565b5b600080865180518760208301019350808887011115610c505787860182525b60208701925050505b60208410610c975780518252602082610c729190611328565b9150602081610c819190611328565b9050602084610c9091906115dd565b9350610c59565b60006001856020036101000a03905080198251168184511681811785525050508692505050949350505050565b610cd18260028351610929565b610ce48183610aae90919063ffffffff16565b505050565b610cf1610e7b565b83602001518310610d1757610d168460028660200151610d1191906114ef565b610dea565b5b8351805160208583010184815381861415610d33576001820183525b5050508390509392505050565b610d48610e7b565b84602001518483610d599190611328565b1115610d8157610d808560028685610d719190611328565b610d7b91906114ef565b610dea565b5b6000600183610100610d9391906113d1565b610d9d91906115dd565b90508551838682010185831982511617815281518588011115610dc05784870182525b505085915050949350505050565b600081831115610de057829050610de4565b8190505b92915050565b600082600001519050610dfd83836108bf565b50610e088382610aae565b50505050565b6040518060a0016040528060008019168152602001600073ffffffffffffffffffffffffffffffffffffffff16815260200160007bffffffffffffffffffffffffffffffffffffffffffffffffffffffff1916815260200160008152602001610e75610e7b565b81525090565b604051806040016040528060608152602001600081525090565b6000610ea8610ea3846112ca565b6112a5565b905082815260208101848484011115610ec457610ec3611833565b5b610ecf8482856116cf565b509392505050565b600081359050610ee68161190b565b92915050565b600081519050610efb81611922565b92915050565b600081359050610f1081611939565b92915050565b600082601f830112610f2b57610f2a61182e565b5b8135610f3b848260208601610e95565b91505092915050565b600081359050610f5381611950565b92915050565b600060208284031215610f6f57610f6e61183d565b5b6000610f7d84828501610ed7565b91505092915050565b600060208284031215610f9c57610f9b61183d565b5b6000610faa84828501610eec565b91505092915050565b60008060408385031215610fca57610fc961183d565b5b6000610fd885828601610f01565b9250506020610fe985828601610f44565b9150509250929050565b6000602082840312156110095761100861183d565b5b600082013567ffffffffffffffff81111561102757611026611838565b5b61103384828501610f16565b91505092915050565b61104581611611565b82525050565b6110548161162f565b82525050565b61106381611639565b82525050565b6000611074826112fb565b61107e8185611306565b935061108e8185602086016116de565b61109781611842565b840191505092915050565b6110b36110ae82611699565b611742565b82525050565b60006110c6602383611317565b91506110d18261186d565b604082019050919050565b60006110e9602883611317565b91506110f4826118bc565b604082019050919050565b6111088161168f565b82525050565b61111f61111a8261168f565b611766565b82525050565b600061113182856110a2565b601482019150611141828461110e565b6020820191508190509392505050565b6000602082019050611166600083018461103c565b92915050565b600061010082019050611182600083018b61103c565b61118f602083018a6110ff565b61119c604083018961104b565b6111a9606083018861103c565b6111b6608083018761105a565b6111c360a08301866110ff565b6111d060c08301856110ff565b81810360e08301526111e28184611069565b90509998505050505050505050565b6000606082019050611206600083018661103c565b61121360208301856110ff565b81810360408301526112258184611069565b9050949350505050565b6000602082019050611244600083018461104b565b92915050565b60006020820190508181036000830152611263816110b9565b9050919050565b60006020820190508181036000830152611283816110dc565b9050919050565b600060208201905061129f60008301846110ff565b92915050565b60006112af6112c0565b90506112bb8282611711565b919050565b6000604051905090565b600067ffffffffffffffff8211156112e5576112e46117ff565b5b6112ee82611842565b9050602081019050919050565b600081519050919050565b600082825260208201905092915050565b600082825260208201905092915050565b60006113338261168f565b915061133e8361168f565b9250827fffffffffffffffffffffffffffffffffffffffffffffffffffffffffffffffff03821115611373576113726117a1565b5b828201905092915050565b6000808291508390505b60018511156113c8578086048111156113a4576113a36117a1565b5b60018516156113b35780820291505b80810290506113c185611860565b9450611388565b94509492505050565b60006113dc8261168f565b91506113e78361168f565b92506114147fffffffffffffffffffffffffffffffffffffffffffffffffffffffffffffffff848461141c565b905092915050565b60008261142c57600190506114e8565b8161143a57600090506114e8565b8160018114611450576002811461145a57611489565b60019150506114e8565b60ff84111561146c5761146b6117a1565b5b8360020a915084821115611483576114826117a1565b5b506114e8565b5060208310610133831016604e8410600b84101617156114be5782820a9050838111156114b9576114b86117a1565b5b6114e8565b6114cb848484600161137e565b925090508184048111156114e2576114e16117a1565b5b81810290505b9392505050565b60006114fa8261168f565b91506115058361168f565b9250817fffffffffffffffffffffffffffffffffffffffffffffffffffffffffffffffff048311821515161561153e5761153d6117a1565b5b828202905092915050565b600061155482611665565b915061155f83611665565b9250827f80000000000000000000000000000000000000000000000000000000000000000182126000841215161561159a576115996117a1565b5b827f7fffffffffffffffffffffffffffffffffffffffffffffffffffffffffffffff0182136000841216156115d2576115d16117a1565b5b828203905092915050565b60006115e88261168f565b91506115f38361168f565b925082821015611606576116056117a1565b5b828203905092915050565b600061161c8261166f565b9050919050565b60008115159050919050565b6000819050919050565b60007fffffffff0000000000000000000000000000000000000000000000000000000082169050919050565b6000819050919050565b600073ffffffffffffffffffffffffffffffffffffffff82169050919050565b6000819050919050565b60006116a4826116ab565b9050919050565b60006116b6826116bd565b9050919050565b60006116c88261166f565b9050919050565b82818337600083830152505050565b60005b838110156116fc5780820151818401526020810190506116e1565b8381111561170b576000848401525b50505050565b61171a82611842565b810181811067ffffffffffffffff82111715611739576117386117ff565b5b80604052505050565b600061174d82611754565b9050919050565b600061175f82611853565b9050919050565b6000819050919050565b600061177b8261168f565b91506117868361168f565b925082611796576117956117d0565b5b828206905092915050565b7f4e487b7100000000000000000000000000000000000000000000000000000000600052601160045260246000fd5b7f4e487b7100000000000000000000000000000000000000000000000000000000600052601260045260246000fd5b7f4e487b7100000000000000000000000000000000000000000000000000000000600052604160045260246000fd5b600080fd5b600080fd5b600080fd5b600080fd5b6000601f19601f8301169050919050565b60008160601b9050919050565b60008160011c9050919050565b7f756e61626c6520746f207472616e73666572416e6443616c6c20746f206f726160008201527f636c650000000000000000000000000000000000000000000000000000000000602082015250565b7f536f75726365206d75737420626520746865206f7261636c65206f662074686560008201527f2072657175657374000000000000000000000000000000000000000000000000602082015250565b61191481611611565b811461191f57600080fd5b50565b61192b81611623565b811461193657600080fd5b50565b6119428161162f565b811461194d57600080fd5b50565b6119598161168f565b811461196457600080fd5b5056fea2646970667358221220d69b8196600b01938e453d079f86e76aa3ae404ceda65df6e8661a29e92b239164736f6c63430008070033",
  "linkReferences": {},
  "deployedLinkReferences": {}
}